{
  "contractName": "Dex",
  "abi": [
    {
      "anonymous": false,
      "inputs": [
        {
          "indexed": true,
          "internalType": "address",
          "name": "previousOwner",
          "type": "address"
        },
        {
          "indexed": true,
          "internalType": "address",
          "name": "newOwner",
          "type": "address"
        }
      ],
      "name": "OwnershipTransferred",
      "type": "event"
    },
    {
      "inputs": [
        {
          "internalType": "bytes32",
          "name": "_ticker",
          "type": "bytes32"
        },
        {
          "internalType": "address",
          "name": "_tokenAddress",
          "type": "address"
        }
      ],
      "name": "addToken",
      "outputs": [],
      "stateMutability": "nonpayable",
      "type": "function"
    },
    {
      "inputs": [
        {
          "internalType": "address",
          "name": "",
          "type": "address"
        },
        {
          "internalType": "bytes32",
          "name": "",
          "type": "bytes32"
        }
      ],
      "name": "balances",
      "outputs": [
        {
          "internalType": "uint256",
          "name": "",
          "type": "uint256"
        }
      ],
      "stateMutability": "view",
      "type": "function"
    },
    {
      "inputs": [],
      "name": "depositEth",
      "outputs": [],
      "stateMutability": "payable",
      "type": "function"
    },
    {
      "inputs": [
        {
          "internalType": "uint256",
          "name": "_amount",
          "type": "uint256"
        },
        {
          "internalType": "bytes32",
          "name": "_ticker",
          "type": "bytes32"
        }
      ],
      "name": "depositToken",
      "outputs": [],
      "stateMutability": "nonpayable",
      "type": "function"
    },
    {
      "inputs": [],
      "name": "nextOrderId",
      "outputs": [
        {
          "internalType": "uint256",
          "name": "",
          "type": "uint256"
        }
      ],
      "stateMutability": "view",
      "type": "function"
    },
    {
      "inputs": [
        {
          "internalType": "bytes32",
          "name": "",
          "type": "bytes32"
        },
        {
          "internalType": "uint256",
          "name": "",
          "type": "uint256"
        },
        {
          "internalType": "uint256",
          "name": "",
          "type": "uint256"
        }
      ],
      "name": "orderBook",
      "outputs": [
        {
          "internalType": "uint256",
          "name": "id",
          "type": "uint256"
        },
        {
          "internalType": "address",
          "name": "trader",
          "type": "address"
        },
        {
          "internalType": "enum Dex.Side",
          "name": "orderType",
          "type": "uint8"
        },
        {
          "internalType": "bytes32",
          "name": "ticker",
          "type": "bytes32"
        },
        {
          "internalType": "uint256",
          "name": "amount",
          "type": "uint256"
        },
        {
          "internalType": "uint256",
          "name": "price",
          "type": "uint256"
        }
      ],
      "stateMutability": "view",
      "type": "function"
    },
    {
      "inputs": [],
      "name": "owner",
      "outputs": [
        {
          "internalType": "address",
          "name": "",
          "type": "address"
        }
      ],
      "stateMutability": "view",
      "type": "function"
    },
    {
      "inputs": [],
      "name": "renounceOwnership",
      "outputs": [],
      "stateMutability": "nonpayable",
      "type": "function"
    },
    {
      "inputs": [
        {
          "internalType": "uint256",
          "name": "",
          "type": "uint256"
        }
      ],
      "name": "tokenList",
      "outputs": [
        {
          "internalType": "bytes32",
          "name": "",
          "type": "bytes32"
        }
      ],
      "stateMutability": "view",
      "type": "function"
    },
    {
      "inputs": [
        {
          "internalType": "bytes32",
          "name": "",
          "type": "bytes32"
        }
      ],
      "name": "tokenMapping",
      "outputs": [
        {
          "internalType": "bytes32",
          "name": "ticker",
          "type": "bytes32"
        },
        {
          "internalType": "address",
          "name": "tokenAddress",
          "type": "address"
        }
      ],
      "stateMutability": "view",
      "type": "function"
    },
    {
      "inputs": [
        {
          "internalType": "address",
          "name": "newOwner",
          "type": "address"
        }
      ],
      "name": "transferOwnership",
      "outputs": [],
      "stateMutability": "nonpayable",
      "type": "function"
    },
    {
      "inputs": [
        {
          "internalType": "uint256",
          "name": "_amount",
          "type": "uint256"
        }
      ],
      "name": "withdrawEth",
      "outputs": [],
      "stateMutability": "nonpayable",
      "type": "function"
    },
    {
      "inputs": [
        {
          "internalType": "uint256",
          "name": "_amount",
          "type": "uint256"
        },
        {
          "internalType": "bytes32",
          "name": "_ticker",
          "type": "bytes32"
        }
      ],
      "name": "withdrawToken",
      "outputs": [],
      "stateMutability": "nonpayable",
      "type": "function"
    },
    {
      "inputs": [
        {
          "internalType": "bytes32",
          "name": "_ticker",
          "type": "bytes32"
        },
        {
          "internalType": "enum Dex.Side",
          "name": "_orderType",
          "type": "uint8"
        }
      ],
      "name": "getOrderBook",
      "outputs": [
        {
          "components": [
            {
              "internalType": "uint256",
              "name": "id",
              "type": "uint256"
            },
            {
              "internalType": "address",
              "name": "trader",
              "type": "address"
            },
            {
              "internalType": "enum Dex.Side",
              "name": "orderType",
              "type": "uint8"
            },
            {
              "internalType": "bytes32",
              "name": "ticker",
              "type": "bytes32"
            },
            {
              "internalType": "uint256",
              "name": "amount",
              "type": "uint256"
            },
            {
              "internalType": "uint256",
              "name": "price",
              "type": "uint256"
            }
          ],
          "internalType": "struct Dex.Order[]",
          "name": "",
          "type": "tuple[]"
        }
      ],
      "stateMutability": "view",
      "type": "function"
    },
    {
      "inputs": [
        {
          "internalType": "enum Dex.Side",
          "name": "_orderType",
          "type": "uint8"
        },
        {
          "internalType": "bytes32",
          "name": "_ticker",
          "type": "bytes32"
        },
        {
          "internalType": "uint256",
          "name": "_amount",
          "type": "uint256"
        },
        {
          "internalType": "uint256",
          "name": "_price",
          "type": "uint256"
        }
      ],
      "name": "createLimitOrder",
      "outputs": [],
      "stateMutability": "nonpayable",
      "type": "function"
    },
    {
      "inputs": [
        {
          "internalType": "enum Dex.Side",
          "name": "_orderType",
          "type": "uint8"
        },
        {
          "internalType": "bytes32",
          "name": "_ticker",
          "type": "bytes32"
        },
        {
          "internalType": "uint256",
          "name": "_amount",
          "type": "uint256"
        }
      ],
      "name": "createMarketOrder",
      "outputs": [],
      "stateMutability": "nonpayable",
      "type": "function"
    }
  ],
  "bytecode": "0x6080604052600060045534801561001557600080fd5b5060006100266100c960201b60201c565b9050806000806101000a81548173ffffffffffffffffffffffffffffffffffffffff021916908373ffffffffffffffffffffffffffffffffffffffff1602179055508073ffffffffffffffffffffffffffffffffffffffff16600073ffffffffffffffffffffffffffffffffffffffff167f8be0079c531659141344cd1fd0a4f28419497f9722a3daafe3b4186f6b6457e060405160405180910390a3506100d1565b600033905090565b6129fa806100e06000396000f3fe6080604052600436106100f35760003560e01c80638da5cb5b1161008a578063ba58ea6811610059578063ba58ea681461030d578063c1612c441461034a578063c311d04914610373578063f2fde38b1461039c576100f3565b80638da5cb5b146102535780639776aacf1461027e57806399ec2f1c146102a75780639ead7222146102d0576100f3565b8063667cb4ba116100c6578063667cb4ba146101ac5780636f3b62f9146101ea578063715018a6146102135780637d34900a1461022a576100f3565b80630bb431b6146100f85780631f14df691461013a5780632a58b33014610177578063439370b1146101a2575b600080fd5b34801561010457600080fd5b5061011f600480360381019061011a9190612249565b6103c5565b604051610131969594939291906127cc565b60405180910390f35b34801561014657600080fd5b50610161600480360381019061015c919061216c565b610458565b60405161016e91906127b1565b60405180910390f35b34801561018357600080fd5b5061018c61047d565b60405161019991906127b1565b60405180910390f35b6101aa610483565b005b3480156101b857600080fd5b506101d360048036038101906101ce91906121a8565b6105d5565b6040516101e1929190612708565b60405180910390f35b3480156101f657600080fd5b50610211600480360381019061020c91906122e7565b610619565b005b34801561021f57600080fd5b50610228610f57565b005b34801561023657600080fd5b50610251600480360381019061024c9190612373565b6110c4565b005b34801561025f57600080fd5b50610268611403565b60405161027591906126b0565b60405180910390f35b34801561028a57600080fd5b506102a560048036038101906102a091906121d1565b61142c565b005b3480156102b357600080fd5b506102ce60048036038101906102c99190612298565b61159a565b005b3480156102dc57600080fd5b506102f760048036038101906102f2919061234a565b611729565b60405161030491906126ed565b60405180910390f35b34801561031957600080fd5b50610334600480360381019061032f919061220d565b61174d565b60405161034191906126cb565b60405180910390f35b34801561035657600080fd5b50610371600480360381019061036c9190612373565b611887565b005b34801561037f57600080fd5b5061039a6004803603810190610395919061234a565b611b1e565b005b3480156103a857600080fd5b506103c360048036038101906103be9190612143565b611d64565b005b600560205282600052604060002060205281600052604060002081815481106103ed57600080fd5b906000526020600020906005020160009250925050508060000154908060010160009054906101000a900473ffffffffffffffffffffffffffffffffffffffff16908060010160149054906101000a900460ff16908060020154908060030154908060040154905086565b6003602052816000526040600020602052806000526040600020600091509150505481565b60045481565b600034116104dc576040517f08c379a00000000000000000000000000000000000000000000000000000000081526004018080602001828103825260308152602001806129746030913960400191505060405180910390fd5b61055f34600360003373ffffffffffffffffffffffffffffffffffffffff1673ffffffffffffffffffffffffffffffffffffffff16815260200190815260200160002060007f4554480000000000000000000000000000000000000000000000000000000000815260200190815260200160002054611f5690919063ffffffff16565b600360003373ffffffffffffffffffffffffffffffffffffffff1673ffffffffffffffffffffffffffffffffffffffff16815260200190815260200160002060007f4554480000000000000000000000000000000000000000000000000000000000815260200190815260200160002081905550565b60016020528060005260406000206000915090508060000154908060010160009054906101000a900473ffffffffffffffffffffffffffffffffffffffff16905082565b6000600181111561062657fe5b84600181111561063257fe5b14156107025761064b8183611fde90919063ffffffff16565b600360003373ffffffffffffffffffffffffffffffffffffffff1673ffffffffffffffffffffffffffffffffffffffff16815260200190815260200160002060007f455448000000000000000000000000000000000000000000000000000000000081526020019081526020016000205410156106fd576040517f08c379a00000000000000000000000000000000000000000000000000000000081526004016106f490612731565b60405180910390fd5b6107b5565b60018081111561070e57fe5b84600181111561071a57fe5b14156107b45781600360003373ffffffffffffffffffffffffffffffffffffffff1673ffffffffffffffffffffffffffffffffffffffff16815260200190815260200160002060008581526020019081526020016000205410156107b3576040517f08c379a00000000000000000000000000000000000000000000000000000000081526004016107aa90612771565b60405180910390fd5b5b5b60006005600085815260200190815260200160002060008660018111156107d857fe5b81526020019081526020016000209050806040518060c0016040528060045481526020013373ffffffffffffffffffffffffffffffffffffffff16815260200187600181111561082457fe5b81526020018681526020018581526020018481525090806001815401808255809150506001900390600052602060002090600502016000909190919091506000820151816000015560208201518160010160006101000a81548173ffffffffffffffffffffffffffffffffffffffff021916908373ffffffffffffffffffffffffffffffffffffffff16021790555060408201518160010160146101000a81548160ff021916908360018111156108d757fe5b0217905550606082015181600201556080820151816003015560a082015181600401555050600080828054905011610910576000610919565b60018280549050035b90506000600181111561092857fe5b86600181111561093457fe5b1415610c2e575b6000811115610c295781818154811061095057fe5b90600052602060002090600502016004015482600183038154811061097157fe5b906000526020600020906005020160040154111561098e57610c29565b600082600183038154811061099f57fe5b90600052602060002090600502016040518060c0016040529081600082015481526020016001820160009054906101000a900473ffffffffffffffffffffffffffffffffffffffff1673ffffffffffffffffffffffffffffffffffffffff1673ffffffffffffffffffffffffffffffffffffffff1681526020016001820160149054906101000a900460ff166001811115610a3657fe5b6001811115610a4157fe5b815260200160028201548152602001600382015481526020016004820154815250509050828281548110610a7157fe5b9060005260206000209060050201836001840381548110610a8e57fe5b9060005260206000209060050201600082015481600001556001820160009054906101000a900473ffffffffffffffffffffffffffffffffffffffff168160010160006101000a81548173ffffffffffffffffffffffffffffffffffffffff021916908373ffffffffffffffffffffffffffffffffffffffff1602179055506001820160149054906101000a900460ff168160010160146101000a81548160ff02191690836001811115610b3e57fe5b021790555060028201548160020155600382015481600301556004820154816004015590505080838381548110610b7157fe5b90600052602060002090600502016000820151816000015560208201518160010160006101000a81548173ffffffffffffffffffffffffffffffffffffffff021916908373ffffffffffffffffffffffffffffffffffffffff16021790555060408201518160010160146101000a81548160ff02191690836001811115610bf457fe5b0217905550606082015181600201556080820151816003015560a082015181600401559050508180600190039250505061093b565b610f3d565b600180811115610c3a57fe5b866001811115610c4657fe5b1415610f3c575b6000811115610f3b57818181548110610c6257fe5b906000526020600020906005020160040154826001830381548110610c8357fe5b9060005260206000209060050201600401541015610ca057610f3b565b6000826001830381548110610cb157fe5b90600052602060002090600502016040518060c0016040529081600082015481526020016001820160009054906101000a900473ffffffffffffffffffffffffffffffffffffffff1673ffffffffffffffffffffffffffffffffffffffff1673ffffffffffffffffffffffffffffffffffffffff1681526020016001820160149054906101000a900460ff166001811115610d4857fe5b6001811115610d5357fe5b815260200160028201548152602001600382015481526020016004820154815250509050828281548110610d8357fe5b9060005260206000209060050201836001840381548110610da057fe5b9060005260206000209060050201600082015481600001556001820160009054906101000a900473ffffffffffffffffffffffffffffffffffffffff168160010160006101000a81548173ffffffffffffffffffffffffffffffffffffffff021916908373ffffffffffffffffffffffffffffffffffffffff1602179055506001820160149054906101000a900460ff168160010160146101000a81548160ff02191690836001811115610e5057fe5b021790555060028201548160020155600382015481600301556004820154816004015590505080838381548110610e8357fe5b90600052602060002090600502016000820151816000015560208201518160010160006101000a81548173ffffffffffffffffffffffffffffffffffffffff021916908373ffffffffffffffffffffffffffffffffffffffff16021790555060408201518160010160146101000a81548160ff02191690836001811115610f0657fe5b0217905550606082015181600201556080820151816003015560a0820151816004015590505081806001900392505050610c4d565b5b5b600460008154809291906001019190505550505050505050565b610f5f612064565b73ffffffffffffffffffffffffffffffffffffffff16610f7d611403565b73ffffffffffffffffffffffffffffffffffffffff1614611006576040517f08c379a00000000000000000000000000000000000000000000000000000000081526004018080602001828103825260208152602001807f4f776e61626c653a2063616c6c6572206973206e6f7420746865206f776e657281525060200191505060405180910390fd5b600073ffffffffffffffffffffffffffffffffffffffff1660008054906101000a900473ffffffffffffffffffffffffffffffffffffffff1673ffffffffffffffffffffffffffffffffffffffff167f8be0079c531659141344cd1fd0a4f28419497f9722a3daafe3b4186f6b6457e060405160405180910390a360008060006101000a81548173ffffffffffffffffffffffffffffffffffffffff021916908373ffffffffffffffffffffffffffffffffffffffff160217905550565b80600073ffffffffffffffffffffffffffffffffffffffff166001600083815260200190815260200160002060010160009054906101000a900473ffffffffffffffffffffffffffffffffffffffff1673ffffffffffffffffffffffffffffffffffffffff16141561119e576040517f08c379a000000000000000000000000000000000000000000000000000000000815260040180806020018281038252601a8152602001807f4e6f206164647265737320696e20746f6b656e4d617070696e6700000000000081525060200191505060405180910390fd5b82600360003373ffffffffffffffffffffffffffffffffffffffff1673ffffffffffffffffffffffffffffffffffffffff1681526020019081526020016000206000848152602001908152602001600020541015611264576040517f08c379a00000000000000000000000000000000000000000000000000000000081526004018080602001828103825260168152602001807f42616c616e6365206e6f742073756666696369656e740000000000000000000081525060200191505060405180910390fd5b6112c783600360003373ffffffffffffffffffffffffffffffffffffffff1673ffffffffffffffffffffffffffffffffffffffff16815260200190815260200160002060008581526020019081526020016000205461206c90919063ffffffff16565b600360003373ffffffffffffffffffffffffffffffffffffffff1673ffffffffffffffffffffffffffffffffffffffff1681526020019081526020016000206000848152602001908152602001600020819055506001600083815260200190815260200160002060010160009054906101000a900473ffffffffffffffffffffffffffffffffffffffff1673ffffffffffffffffffffffffffffffffffffffff1663a9059cbb33856040518363ffffffff1660e01b8152600401808373ffffffffffffffffffffffffffffffffffffffff16815260200182815260200192505050602060405180830381600087803b1580156113c257600080fd5b505af11580156113d6573d6000803e3d6000fd5b505050506040513d60208110156113ec57600080fd5b810190808051906020019092919050505050505050565b60008060009054906101000a900473ffffffffffffffffffffffffffffffffffffffff16905090565b611434612064565b73ffffffffffffffffffffffffffffffffffffffff16611452611403565b73ffffffffffffffffffffffffffffffffffffffff16146114db576040517f08c379a00000000000000000000000000000000000000000000000000000000081526004018080602001828103825260208152602001807f4f776e61626c653a2063616c6c6572206973206e6f7420746865206f776e657281525060200191505060405180910390fd5b60405180604001604052808381526020018273ffffffffffffffffffffffffffffffffffffffff16815250600160008481526020019081526020016000206000820151816000015560208201518160010160006101000a81548173ffffffffffffffffffffffffffffffffffffffff021916908373ffffffffffffffffffffffffffffffffffffffff16021790555090505060028290806001815401808255809150506001900390600052602060002001600090919091909150555050565b600060018111156115a757fe5b8360018111156115b357fe5b14156116715780600360003373ffffffffffffffffffffffffffffffffffffffff1673ffffffffffffffffffffffffffffffffffffffff16815260200190815260200160002060007f4554480000000000000000000000000000000000000000000000000000000000815260200190815260200160002054101561166c576040517f08c379a000000000000000000000000000000000000000000000000000000000815260040161166390612751565b60405180910390fd5b611724565b60018081111561167d57fe5b83600181111561168957fe5b14156117235780600360003373ffffffffffffffffffffffffffffffffffffffff1673ffffffffffffffffffffffffffffffffffffffff1681526020019081526020016000206000848152602001908152602001600020541015611722576040517f08c379a000000000000000000000000000000000000000000000000000000000815260040161171990612791565b60405180910390fd5b5b5b505050565b6002818154811061173957600080fd5b906000526020600020016000915090505481565b606060056000848152602001908152602001600020600083600181111561177057fe5b8152602001908152602001600020805480602002602001604051908101604052809291908181526020016000905b8282101561187b57838290600052602060002090600502016040518060c0016040529081600082015481526020016001820160009054906101000a900473ffffffffffffffffffffffffffffffffffffffff1673ffffffffffffffffffffffffffffffffffffffff1673ffffffffffffffffffffffffffffffffffffffff1681526020016001820160149054906101000a900460ff16600181111561183f57fe5b600181111561184a57fe5b815260200160028201548152602001600382015481526020016004820154815250508152602001906001019061179e565b50505050905092915050565b80600073ffffffffffffffffffffffffffffffffffffffff166001600083815260200190815260200160002060010160009054906101000a900473ffffffffffffffffffffffffffffffffffffffff1673ffffffffffffffffffffffffffffffffffffffff161415611961576040517f08c379a000000000000000000000000000000000000000000000000000000000815260040180806020018281038252601a8152602001807f4e6f206164647265737320696e20746f6b656e4d617070696e6700000000000081525060200191505060405180910390fd5b6001600083815260200190815260200160002060010160009054906101000a900473ffffffffffffffffffffffffffffffffffffffff1673ffffffffffffffffffffffffffffffffffffffff166323b872dd3330866040518463ffffffff1660e01b8152600401808473ffffffffffffffffffffffffffffffffffffffff1681526020018373ffffffffffffffffffffffffffffffffffffffff1681526020018281526020019350505050602060405180830381600087803b158015611a2657600080fd5b505af1158015611a3a573d6000803e3d6000fd5b505050506040513d6020811015611a5057600080fd5b810190808051906020019092919050505050611ac583600360003373ffffffffffffffffffffffffffffffffffffffff1673ffffffffffffffffffffffffffffffffffffffff168152602001908152602001600020600085815260200190815260200160002054611f5690919063ffffffff16565b600360003373ffffffffffffffffffffffffffffffffffffffff1673ffffffffffffffffffffffffffffffffffffffff168152602001908152602001600020600084815260200190815260200160002081905550505050565b80600360003373ffffffffffffffffffffffffffffffffffffffff1673ffffffffffffffffffffffffffffffffffffffff16815260200190815260200160002060007f45544800000000000000000000000000000000000000000000000000000000008152602001908152602001600020541015611c04576040517f08c379a000000000000000000000000000000000000000000000000000000000815260040180806020018281038252601f8152602001807f77697468647261774574683a20496e7375666669656e742062616c616e63650081525060200191505060405180910390fd5b611c8781600360003373ffffffffffffffffffffffffffffffffffffffff1673ffffffffffffffffffffffffffffffffffffffff16815260200190815260200160002060007f455448000000000000000000000000000000000000000000000000000000000081526020019081526020016000205461206c90919063ffffffff16565b600360003373ffffffffffffffffffffffffffffffffffffffff1673ffffffffffffffffffffffffffffffffffffffff16815260200190815260200160002060007f45544800000000000000000000000000000000000000000000000000000000008152602001908152602001600020819055503373ffffffffffffffffffffffffffffffffffffffff168160405180600001905060006040518083038185875af1925050503d8060008114611d59576040519150601f19603f3d011682016040523d82523d6000602084013e611d5e565b606091505b50505050565b611d6c612064565b73ffffffffffffffffffffffffffffffffffffffff16611d8a611403565b73ffffffffffffffffffffffffffffffffffffffff1614611e13576040517f08c379a00000000000000000000000000000000000000000000000000000000081526004018080602001828103825260208152602001807f4f776e61626c653a2063616c6c6572206973206e6f7420746865206f776e657281525060200191505060405180910390fd5b600073ffffffffffffffffffffffffffffffffffffffff168173ffffffffffffffffffffffffffffffffffffffff161415611e99576040517f08c379a000000000000000000000000000000000000000000000000000000000815260040180806020018281038252602681526020018061294e6026913960400191505060405180910390fd5b8073ffffffffffffffffffffffffffffffffffffffff1660008054906101000a900473ffffffffffffffffffffffffffffffffffffffff1673ffffffffffffffffffffffffffffffffffffffff167f8be0079c531659141344cd1fd0a4f28419497f9722a3daafe3b4186f6b6457e060405160405180910390a3806000806101000a81548173ffffffffffffffffffffffffffffffffffffffff021916908373ffffffffffffffffffffffffffffffffffffffff16021790555050565b600080828401905083811015611fd4576040517f08c379a000000000000000000000000000000000000000000000000000000000815260040180806020018281038252601b8152602001807f536166654d6174683a206164646974696f6e206f766572666c6f77000000000081525060200191505060405180910390fd5b8091505092915050565b600080831415611ff1576000905061205e565b600082840290508284828161200257fe5b0414612059576040517f08c379a00000000000000000000000000000000000000000000000000000000081526004018080602001828103825260218152602001806129a46021913960400191505060405180910390fd5b809150505b92915050565b600033905090565b6000828211156120e4576040517f08c379a000000000000000000000000000000000000000000000000000000000815260040180806020018281038252601e8152602001807f536166654d6174683a207375627472616374696f6e206f766572666c6f77000081525060200191505060405180910390fd5b818303905092915050565b6000813590506120fe816128f8565b92915050565b6000813590506121138161290f565b92915050565b60008135905061212881612926565b92915050565b60008135905061213d81612936565b92915050565b60006020828403121561215557600080fd5b6000612163848285016120ef565b91505092915050565b6000806040838503121561217f57600080fd5b600061218d858286016120ef565b925050602061219e85828601612104565b9150509250929050565b6000602082840312156121ba57600080fd5b60006121c884828501612104565b91505092915050565b600080604083850312156121e457600080fd5b60006121f285828601612104565b9250506020612203858286016120ef565b9150509250929050565b6000806040838503121561222057600080fd5b600061222e85828601612104565b925050602061223f85828601612119565b9150509250929050565b60008060006060848603121561225e57600080fd5b600061226c86828701612104565b935050602061227d8682870161212e565b925050604061228e8682870161212e565b9150509250925092565b6000806000606084860312156122ad57600080fd5b60006122bb86828701612119565b93505060206122cc86828701612104565b92505060406122dd8682870161212e565b9150509250925092565b600080600080608085870312156122fd57600080fd5b600061230b87828801612119565b945050602061231c87828801612104565b935050604061232d8782880161212e565b925050606061233e8782880161212e565b91505092959194509250565b60006020828403121561235c57600080fd5b600061236a8482850161212e565b91505092915050565b6000806040838503121561238657600080fd5b60006123948582860161212e565b92505060206123a585828601612104565b9150509250929050565b60006123bb8383612617565b60c08301905092915050565b6123d081612877565b82525050565b6123df81612877565b82525050565b60006123f08261283d565b6123fa8185612855565b93506124058361282d565b8060005b8381101561243657815161241d88826123af565b975061242883612848565b925050600181019050612409565b5085935050505092915050565b61244c81612889565b82525050565b61245b81612889565b82525050565b61246a816128d0565b82525050565b612479816128d0565b82525050565b600061248c603283612866565b91507f6372656174654c696d69744f726465723a204e6f7420656e6f7567682045544860008301527f2042616c616e6365206465706f736974656400000000000000000000000000006020830152604082019050919050565b60006124f2603383612866565b91507f6372656174654d61726b65744f726465723a204e6f7420656e6f75676820455460008301527f482042616c616e6365206465706f7369746564000000000000000000000000006020830152604082019050919050565b6000612558603483612866565b91507f6372656174654c696d69744f726465723a204e6f7420656e6f75676820546f6b60008301527f656e2042616c616e6365206465706f73697465640000000000000000000000006020830152604082019050919050565b60006125be603583612866565b91507f6372656174654d61726b65744f726465723a204e6f7420656e6f75676820546f60008301527f6b656e2042616c616e6365206465706f736974656400000000000000000000006020830152604082019050919050565b60c08201600082015161262d6000850182612692565b50602082015161264060208501826123c7565b5060408201516126536040850182612461565b5060608201516126666060850182612443565b5060808201516126796080850182612692565b5060a082015161268c60a0850182612692565b50505050565b61269b816128c6565b82525050565b6126aa816128c6565b82525050565b60006020820190506126c560008301846123d6565b92915050565b600060208201905081810360008301526126e581846123e5565b905092915050565b60006020820190506127026000830184612452565b92915050565b600060408201905061271d6000830185612452565b61272a60208301846123d6565b9392505050565b6000602082019050818103600083015261274a8161247f565b9050919050565b6000602082019050818103600083015261276a816124e5565b9050919050565b6000602082019050818103600083015261278a8161254b565b9050919050565b600060208201905081810360008301526127aa816125b1565b9050919050565b60006020820190506127c660008301846126a1565b92915050565b600060c0820190506127e160008301896126a1565b6127ee60208301886123d6565b6127fb6040830187612470565b6128086060830186612452565b61281560808301856126a1565b61282260a08301846126a1565b979650505050505050565b6000819050602082019050919050565b600081519050919050565b6000602082019050919050565b600082825260208201905092915050565b600082825260208201905092915050565b6000612882826128a6565b9050919050565b6000819050919050565b60008190506128a1826128e4565b919050565b600073ffffffffffffffffffffffffffffffffffffffff82169050919050565b6000819050919050565b60006128db82612893565b9050919050565bfe5b600281106128f5576128f46128e2565b5b50565b61290181612877565b811461290c57600080fd5b50565b61291881612889565b811461292357600080fd5b50565b6002811061293357600080fd5b50565b61293f816128c6565b811461294a57600080fd5b5056fe4f776e61626c653a206e6577206f776e657220697320746865207a65726f20616464726573736465706f7369744574683a206d73672e76616c75652073686f756c6420626520686967686572207468616e207a65726f536166654d6174683a206d756c7469706c69636174696f6e206f766572666c6f77a26469706673582212200ba7c689c41a455a8dad87676f2befd8868f9b51e058d72a665cbe742a7b58b264736f6c63430007060033",
  "immutableReferences": {},
  "source": "//SPDX-License-Identifier: UNLICENSED\r\npragma solidity >=0.6.0 < 0.8.0;\r\npragma experimental ABIEncoderV2;\r\n\r\nimport \"./Wallet.sol\";\r\n\r\ncontract Dex is Wallet{\r\n\r\n    using SafeMath for uint256;\r\n    enum Side{\r\n        BUY,\r\n        SELL\r\n    }\r\n\r\n    struct Order{\r\n        uint256 id;\r\n        address trader;\r\n        Side orderType;\r\n        bytes32 ticker;\r\n        uint256 amount;\r\n        uint256 price;\r\n    }\r\n    uint256 public nextOrderId = 0;\r\n\r\n    //[ticker] => ([orderType] => [Order Struct])\r\n    mapping(bytes32 => mapping(uint256 => Order[])) public orderBook;\r\n\r\n    function getOrderBook(bytes32  _ticker, Side _orderType) public view returns(Order[] memory){\r\n        return orderBook[(_ticker)][uint256(_orderType)];\r\n    }\r\n\r\n    function createLimitOrder(Side _orderType, bytes32 _ticker, uint256 _amount, uint256 _price) public{\r\n        if(_orderType == Side.BUY){\r\n            require(balances[msg.sender][bytes32(\"ETH\")] >= _amount.mul(_price), \"createLimitOrder: Not enough ETH Balance deposited\");\r\n        }\r\n\r\n        else if(_orderType == Side.SELL){\r\n            require(balances[msg.sender][_ticker] >= _amount, \"createLimitOrder: Not enough Token Balance deposited\");\r\n        }\r\n\r\n        Order[] storage orders = orderBook[_ticker][uint256(_orderType)];\r\n        orders.push(\r\n            Order(nextOrderId, msg.sender, _orderType, _ticker, _amount, _price)\r\n        );\r\n\r\n        //Bubble sort'\r\n        uint _i = orders.length > 0 ? orders.length - 1 : 0;\r\n\r\n        if(_orderType == Side.BUY){\r\n            while(_i > 0){\r\n                if(orders[_i - 1].price > orders[_i].price){\r\n                    break;\r\n                }\r\n                Order memory orderToMove = orders[_i -1];\r\n                orders[_i - 1] = orders[_i];\r\n                orders[_i] = orderToMove;\r\n                _i--;\r\n            }\r\n        }\r\n        else if(_orderType == Side.SELL){\r\n            while(_i > 0){\r\n                if(orders[_i - 1].price < orders[_i].price){\r\n                    break;\r\n                }\r\n                Order memory orderToMove = orders[_i -1];\r\n                orders[_i - 1] = orders[_i];\r\n                orders[_i] = orderToMove;\r\n                _i--;\r\n            }\r\n        }\r\n        nextOrderId++;\r\n        \r\n    }\r\n\r\n    function createMarketOrder(Side _orderType, bytes32 _ticker, uint256 _amount) public{\r\n        if(_orderType == Side.BUY){\r\n            require(balances[msg.sender][bytes32(\"ETH\")] >= _amount, \"createMarketOrder: Not enough ETH Balance deposited\");\r\n        }\r\n        else if(_orderType == Side.SELL){\r\n            require(balances[msg.sender][_ticker] >= _amount, \"createMarketOrder: Not enough Token Balance deposited\");\r\n        }\r\n    }\r\n}",
  "sourcePath": "D:\\github\\Project-Dex\\solidity\\contracts\\Dex.sol",
  "compiler": {
    "name": "solc",
    "version": "0.7.6+commit.7338295f.Emscripten.clang"
  },
  "schemaVersion": "3.2.0",
  "updatedAt": "2021-03-21T04:40:42.128Z",
  "devdoc": {
    "kind": "dev",
    "methods": {
      "owner()": {
        "details": "Returns the address of the current owner."
      },
      "renounceOwnership()": {
        "details": "Leaves the contract without owner. It will not be possible to call `onlyOwner` functions anymore. Can only be called by the current owner. NOTE: Renouncing ownership will leave the contract without an owner, thereby removing any functionality that is only available to the owner."
      },
      "transferOwnership(address)": {
        "details": "Transfers ownership of the contract to a new account (`newOwner`). Can only be called by the current owner."
      }
    },
    "version": 1
  },
  "userdoc": {
    "kind": "user",
    "methods": {},
    "version": 1
  }
}